{
  "contractName": "GovernanceData",
  "abi": [
    {
      "inputs": [],
      "name": "lottery",
      "outputs": [
        {
          "internalType": "address",
          "name": "",
          "type": "address"
        }
      ],
      "stateMutability": "view",
      "type": "function"
    },
    {
      "inputs": [],
      "name": "randomness",
      "outputs": [
        {
          "internalType": "address",
          "name": "",
          "type": "address"
        }
      ],
      "stateMutability": "view",
      "type": "function"
    }
  ],
  "bytecode": "0x608060405234801561001057600080fd5b50610150806100206000396000f3fe608060405234801561001057600080fd5b50600436106100365760003560e01c8063360131891461003b578063ba13a57214610085575b600080fd5b6100436100cf565b604051808273ffffffffffffffffffffffffffffffffffffffff1673ffffffffffffffffffffffffffffffffffffffff16815260200191505060405180910390f35b61008d6100f5565b604051808273ffffffffffffffffffffffffffffffffffffffff1673ffffffffffffffffffffffffffffffffffffffff16815260200191505060405180910390f35b600160009054906101000a900473ffffffffffffffffffffffffffffffffffffffff1681565b6000809054906101000a900473ffffffffffffffffffffffffffffffffffffffff168156fea26469706673582212209560066b7d261437318d25eb5e4457bddceb89fd511b4e508e97b3a97a34cb7c64736f6c63430006060033",
  "immutableReferences": {},
  "source": "pragma solidity ^0.6.6;\n\ncontract GovernanceData {\n    address public lottery;\n    address public randomness;\n}\n\ncontract LottoBuffaloGovernance is GovernanceData {\n    constructor() public {}\n\n    function init(address _lottery, address _randomness) public {\n      require(_lottery != address(0), \"no-lottery-address-given\");\n      require(_randomness != address(0), \"governance/no-randomnesss-address\");\n\n      lottery = _lottery;\n      randomness = _randomness;\n    }\n}",
  "sourcePath": "/Users/gmsteuart/Sites/lotto-buffalo/ethereum/contracts/LottoBuffaloGovernance.sol",
  "compiler": {
    "name": "solc",
    "version": "0.6.6+commit.6c089d02.Emscripten.clang"
  },
  "schemaVersion": "3.2.3",
  "updatedAt": "2020-08-06T23:23:46.402Z",
  "devdoc": {
    "methods": {}
  },
  "userdoc": {
    "methods": {}
  }
}