{
  "contractName": "LottoBuffaloGovernance",
  "abi": [
    {
      "inputs": [],
      "name": "lottery",
      "outputs": [
        {
          "internalType": "address",
          "name": "",
          "type": "address"
        }
      ],
      "stateMutability": "view",
      "type": "function",
      "constant": true
    },
    {
      "inputs": [],
      "name": "randomness",
      "outputs": [
        {
          "internalType": "address",
          "name": "",
          "type": "address"
        }
      ],
      "stateMutability": "view",
      "type": "function",
      "constant": true
    },
    {
      "inputs": [
        {
          "internalType": "address",
          "name": "_lottery",
          "type": "address"
        },
        {
          "internalType": "address",
          "name": "_randomness",
          "type": "address"
        }
      ],
      "name": "init",
      "outputs": [],
      "stateMutability": "nonpayable",
      "type": "function"
    }
  ],
  "bytecode": "0x608060405234801561001057600080fd5b50610530806100206000396000f3fe608060405234801561001057600080fd5b50600436106100415760003560e01c80633601318914610046578063ba13a57214610090578063f09a4016146100da575b600080fd5b61004e61013e565b604051808273ffffffffffffffffffffffffffffffffffffffff1673ffffffffffffffffffffffffffffffffffffffff16815260200191505060405180910390f35b610098610164565b604051808273ffffffffffffffffffffffffffffffffffffffff1673ffffffffffffffffffffffffffffffffffffffff16815260200191505060405180910390f35b61013c600480360360408110156100f057600080fd5b81019080803573ffffffffffffffffffffffffffffffffffffffff169060200190929190803573ffffffffffffffffffffffffffffffffffffffff169060200190929190505050610189565b005b600160009054906101000a900473ffffffffffffffffffffffffffffffffffffffff1681565b6000809054906101000a900473ffffffffffffffffffffffffffffffffffffffff1681565b600073ffffffffffffffffffffffffffffffffffffffff168273ffffffffffffffffffffffffffffffffffffffff16141561020f576040517f08c379a00000000000000000000000000000000000000000000000000000000081526004018080602001828103825260238152602001806104b26023913960400191505060405180910390fd5b600073ffffffffffffffffffffffffffffffffffffffff168173ffffffffffffffffffffffffffffffffffffffff161415610295576040517f08c379a00000000000000000000000000000000000000000000000000000000081526004018080602001828103825260218152602001806104916021913960400191505060405180910390fd5b600073ffffffffffffffffffffffffffffffffffffffff166000809054906101000a900473ffffffffffffffffffffffffffffffffffffffff1673ffffffffffffffffffffffffffffffffffffffff161461033b576040517f08c379a00000000000000000000000000000000000000000000000000000000081526004018080602001828103825260268152602001806104d56026913960400191505060405180910390fd5b600073ffffffffffffffffffffffffffffffffffffffff16600160009054906101000a900473ffffffffffffffffffffffffffffffffffffffff1673ffffffffffffffffffffffffffffffffffffffff16146103e2576040517f08c379a00000000000000000000000000000000000000000000000000000000081526004018080602001828103825260298152602001806104686029913960400191505060405180910390fd5b816000806101000a81548173ffffffffffffffffffffffffffffffffffffffff021916908373ffffffffffffffffffffffffffffffffffffffff16021790555080600160006101000a81548173ffffffffffffffffffffffffffffffffffffffff021916908373ffffffffffffffffffffffffffffffffffffffff160217905550505056fe676f7665726e616e63652f72616e646f6d6e6573732d616464726573732d616c72656164792d736574676f7665726e616e63652f6e6f2d72616e646f6d6e657373732d61646472657373676f7665726e616e63652f6e6f2d6c6f74746572792d616464726573732d676976656e676f7665726e616e63652f6c6f74746572792d616464726573732d616c72656164792d736574a2646970667358221220c98dcc6cb76a0da3c88e2bf2b5a1a9dfd0f7adad7d87e19656a262cf3b53342964736f6c63430006060033",
  "immutableReferences": {},
  "source": "// SPDX-License-Identifier: MIT\npragma solidity ^0.6.6;\n\n// import {Governance} from \"./interfaces/Governance.sol\";\n\ncontract LottoBuffaloGovernance {\n    address public lottery;\n    address public randomness;\n\n    function init(address _lottery, address _randomness) external {\n      require(_lottery != address(0), \"governance/no-lottery-address-given\");\n      require(_randomness != address(0), \"governance/no-randomnesss-address\");\n      require(lottery == address(0), \"governance/lottery-address-already-set\");\n      require(randomness == address(0), \"governance/randomness-address-already-set\");\n\n      lottery = _lottery;\n      randomness = _randomness;\n    }\n}",
  "sourcePath": "/Users/gmsteuart/Sites/lotto-buffalo/ethereum/contracts/LottoBuffaloGovernance.sol",
  "compiler": {
    "name": "solc",
    "version": "0.6.6+commit.6c089d02.Emscripten.clang"
  },
  "schemaVersion": "3.2.3",
  "updatedAt": "2020-08-09T21:55:03.534Z",
  "networkType": "ethereum",
  "devdoc": {
    "methods": {}
  },
  "userdoc": {
    "methods": {}
  }
}