{
  "contractName": "LottoBuffalo",
  "abi": [
    {
      "inputs": [
        {
          "internalType": "address",
          "name": "_governance",
          "type": "address"
        },
        {
          "internalType": "address",
          "name": "_link",
          "type": "address"
        },
        {
          "internalType": "address",
          "name": "_alarmOracle",
          "type": "address"
        }
      ],
      "stateMutability": "nonpayable",
      "type": "constructor"
    },
    {
      "anonymous": false,
      "inputs": [
        {
          "indexed": true,
          "internalType": "bytes32",
          "name": "id",
          "type": "bytes32"
        }
      ],
      "name": "ChainlinkCancelled",
      "type": "event"
    },
    {
      "anonymous": false,
      "inputs": [
        {
          "indexed": true,
          "internalType": "bytes32",
          "name": "id",
          "type": "bytes32"
        }
      ],
      "name": "ChainlinkFulfilled",
      "type": "event"
    },
    {
      "anonymous": false,
      "inputs": [
        {
          "indexed": true,
          "internalType": "bytes32",
          "name": "id",
          "type": "bytes32"
        }
      ],
      "name": "ChainlinkRequested",
      "type": "event"
    },
    {
      "anonymous": false,
      "inputs": [
        {
          "indexed": false,
          "internalType": "uint256",
          "name": "_id",
          "type": "uint256"
        }
      ],
      "name": "Close",
      "type": "event"
    },
    {
      "anonymous": false,
      "inputs": [
        {
          "indexed": false,
          "internalType": "uint256",
          "name": "_id",
          "type": "uint256"
        },
        {
          "indexed": true,
          "internalType": "address",
          "name": "_from",
          "type": "address"
        },
        {
          "indexed": false,
          "internalType": "uint256",
          "name": "_duration",
          "type": "uint256"
        }
      ],
      "name": "Open",
      "type": "event"
    },
    {
      "anonymous": false,
      "inputs": [
        {
          "indexed": true,
          "internalType": "address",
          "name": "previousOwner",
          "type": "address"
        },
        {
          "indexed": true,
          "internalType": "address",
          "name": "newOwner",
          "type": "address"
        }
      ],
      "name": "OwnershipTransferred",
      "type": "event"
    },
    {
      "anonymous": false,
      "inputs": [
        {
          "indexed": false,
          "internalType": "uint256",
          "name": "_id",
          "type": "uint256"
        },
        {
          "indexed": true,
          "internalType": "address",
          "name": "_from",
          "type": "address"
        }
      ],
      "name": "PlayerJoined",
      "type": "event"
    },
    {
      "anonymous": false,
      "inputs": [
        {
          "indexed": false,
          "internalType": "uint256",
          "name": "_id",
          "type": "uint256"
        },
        {
          "indexed": false,
          "internalType": "uint256",
          "name": "_randomness",
          "type": "uint256"
        },
        {
          "indexed": false,
          "internalType": "uint256",
          "name": "_index",
          "type": "uint256"
        },
        {
          "indexed": true,
          "internalType": "address",
          "name": "_from",
          "type": "address"
        },
        {
          "indexed": false,
          "internalType": "uint256",
          "name": "_amount",
          "type": "uint256"
        }
      ],
      "name": "Winner",
      "type": "event"
    },
    {
      "inputs": [],
      "name": "MINIMUM",
      "outputs": [
        {
          "internalType": "uint256",
          "name": "",
          "type": "uint256"
        }
      ],
      "stateMutability": "view",
      "type": "function",
      "constant": true
    },
    {
      "inputs": [],
      "name": "ORACLE_PAYMENT",
      "outputs": [
        {
          "internalType": "uint256",
          "name": "",
          "type": "uint256"
        }
      ],
      "stateMutability": "view",
      "type": "function",
      "constant": true
    },
    {
      "inputs": [],
      "name": "RANDOMRESULT",
      "outputs": [
        {
          "internalType": "uint256",
          "name": "",
          "type": "uint256"
        }
      ],
      "stateMutability": "view",
      "type": "function",
      "constant": true
    },
    {
      "inputs": [],
      "name": "data",
      "outputs": [
        {
          "internalType": "uint256",
          "name": "",
          "type": "uint256"
        }
      ],
      "stateMutability": "view",
      "type": "function",
      "constant": true
    },
    {
      "inputs": [],
      "name": "governance",
      "outputs": [
        {
          "internalType": "contract Governance",
          "name": "",
          "type": "address"
        }
      ],
      "stateMutability": "view",
      "type": "function",
      "constant": true
    },
    {
      "inputs": [],
      "name": "id",
      "outputs": [
        {
          "internalType": "uint256",
          "name": "",
          "type": "uint256"
        }
      ],
      "stateMutability": "view",
      "type": "function",
      "constant": true
    },
    {
      "inputs": [],
      "name": "owner",
      "outputs": [
        {
          "internalType": "address",
          "name": "",
          "type": "address"
        }
      ],
      "stateMutability": "view",
      "type": "function",
      "constant": true
    },
    {
      "inputs": [
        {
          "internalType": "uint256",
          "name": "",
          "type": "uint256"
        }
      ],
      "name": "players",
      "outputs": [
        {
          "internalType": "address payable",
          "name": "",
          "type": "address"
        }
      ],
      "stateMutability": "view",
      "type": "function",
      "constant": true
    },
    {
      "inputs": [],
      "name": "renounceOwnership",
      "outputs": [],
      "stateMutability": "nonpayable",
      "type": "function"
    },
    {
      "inputs": [
        {
          "internalType": "address",
          "name": "newOwner",
          "type": "address"
        }
      ],
      "name": "transferOwnership",
      "outputs": [],
      "stateMutability": "nonpayable",
      "type": "function"
    },
    {
      "inputs": [],
      "name": "join",
      "outputs": [],
      "stateMutability": "payable",
      "type": "function",
      "payable": true
    },
    {
      "inputs": [
        {
          "internalType": "uint256",
          "name": "duration",
          "type": "uint256"
        }
      ],
      "name": "open",
      "outputs": [],
      "stateMutability": "nonpayable",
      "type": "function"
    },
    {
      "inputs": [
        {
          "internalType": "bytes32",
          "name": "requestId",
          "type": "bytes32"
        }
      ],
      "name": "fulfill",
      "outputs": [],
      "stateMutability": "nonpayable",
      "type": "function"
    },
    {
      "inputs": [
        {
          "internalType": "uint256",
          "name": "randomness",
          "type": "uint256"
        }
      ],
      "name": "close",
      "outputs": [],
      "stateMutability": "nonpayable",
      "type": "function"
    },
    {
      "inputs": [],
      "name": "getChainlinkToken",
      "outputs": [
        {
          "internalType": "address",
          "name": "",
          "type": "address"
        }
      ],
      "stateMutability": "view",
      "type": "function",
      "constant": true
    },
    {
      "inputs": [
        {
          "internalType": "address",
          "name": "_player",
          "type": "address"
        }
      ],
      "name": "getPlayer",
      "outputs": [
        {
          "internalType": "address payable",
          "name": "",
          "type": "address"
        }
      ],
      "stateMutability": "view",
      "type": "function",
      "constant": true
    },
    {
      "inputs": [],
      "name": "getAlarmAddress",
      "outputs": [
        {
          "internalType": "address",
          "name": "",
          "type": "address"
        }
      ],
      "stateMutability": "view",
      "type": "function",
      "constant": true
    },
    {
      "inputs": [],
      "name": "getAlarmJobId",
      "outputs": [
        {
          "internalType": "bytes32",
          "name": "",
          "type": "bytes32"
        }
      ],
      "stateMutability": "view",
      "type": "function",
      "constant": true
    },
    {
      "inputs": [],
      "name": "getPlayers",
      "outputs": [
        {
          "internalType": "address payable[]",
          "name": "",
          "type": "address[]"
        }
      ],
      "stateMutability": "view",
      "type": "function",
      "constant": true
    },
    {
      "inputs": [],
      "name": "getPlayerCount",
      "outputs": [
        {
          "internalType": "uint256",
          "name": "",
          "type": "uint256"
        }
      ],
      "stateMutability": "view",
      "type": "function",
      "constant": true
    },
    {
      "inputs": [],
      "name": "getLotteryAmount",
      "outputs": [
        {
          "internalType": "uint256",
          "name": "",
          "type": "uint256"
        }
      ],
      "stateMutability": "view",
      "type": "function",
      "constant": true
    },
    {
      "inputs": [],
      "name": "isOpen",
      "outputs": [
        {
          "internalType": "bool",
          "name": "",
          "type": "bool"
        }
      ],
      "stateMutability": "view",
      "type": "function",
      "constant": true
    },
    {
      "inputs": [],
      "name": "isClosed",
      "outputs": [
        {
          "internalType": "bool",
          "name": "",
          "type": "bool"
        }
      ],
      "stateMutability": "view",
      "type": "function",
      "constant": true
    },
    {
      "inputs": [],
      "name": "isFinished",
      "outputs": [
        {
          "internalType": "bool",
          "name": "",
          "type": "bool"
        }
      ],
      "stateMutability": "view",
      "type": "function",
      "constant": true
    }
  ],
  "bytecode": "0x6080604052600160045566038d7ea4c68000600a55670de0b6b3a7640000600b557f3737383633336566313838383436393261646331666539353932313037393537600d556000600f553480156200005657600080fd5b506040516200254d3803806200254d833981810160405260608110156200007c57600080fd5b810190808051906020019092919080519060200190929190805190602001909291905050506000620000b36200026860201b60201c565b905080600660006101000a81548173ffffffffffffffffffffffffffffffffffffffff021916908373ffffffffffffffffffffffffffffffffffffffff1602179055508073ffffffffffffffffffffffffffffffffffffffff16600073ffffffffffffffffffffffffffffffffffffffff167f8be0079c531659141344cd1fd0a4f28419497f9722a3daafe3b4186f6b6457e060405160405180910390a350600073ffffffffffffffffffffffffffffffffffffffff168273ffffffffffffffffffffffffffffffffffffffff1614156200019e57620001986200027060201b60201c565b620001b0565b620001af826200031a60201b60201c565b5b82600960006101000a81548173ffffffffffffffffffffffffffffffffffffffff021916908373ffffffffffffffffffffffffffffffffffffffff1602179055506001600f819055506001601160006101000a81548160ff021916908360028111156200021957fe5b021790555080600c60006101000a81548173ffffffffffffffffffffffffffffffffffffffff021916908373ffffffffffffffffffffffffffffffffffffffff1602179055505050506200035e565b600033905090565b6200031873c89bd4e1632d3a43cb03aaad5262cbe4038bc57173ffffffffffffffffffffffffffffffffffffffff166338cc48316040518163ffffffff1660e01b815260040160206040518083038186803b158015620002cf57600080fd5b505afa158015620002e4573d6000803e3d6000fd5b505050506040513d6020811015620002fb57600080fd5b81019080805190602001909291905050506200031a60201b60201c565b565b80600260006101000a81548173ffffffffffffffffffffffffffffffffffffffff021916908373ffffffffffffffffffffffffffffffffffffffff16021790555050565b6121df806200036e6000396000f3fe60806040526004361061014b5760003560e01c80638b5b9ccc116100b6578063af640d0f1161006f578063af640d0f146105d1578063b688a363146105fc578063c2b6b58c14610606578063c2e5220614610635578063f2fde38b14610660578063f71d96cb146106b15761014b565b80638b5b9ccc146104625780638da5cb5b146104ce5780639c484b5c14610525578063a1fd4b3414610550578063a537e19d1461057b578063aeca2140146105a65761014b565b80635c12cd4b116101085780635c12cd4b146102fa578063690e7c091461038b578063715018a6146103c657806373d4a13a146103dd5780637b352962146104085780638732ed57146104375761014b565b80630aebeb4e146101505780630fe15c5e1461018b578063165d35e1146101e257806347535d7b146102395780635508ff94146102685780635aa6e675146102a3575b600080fd5b34801561015c57600080fd5b506101896004803603602081101561017357600080fd5b810190808035906020019092919050505061072c565b005b34801561019757600080fd5b506101a0610a17565b604051808273ffffffffffffffffffffffffffffffffffffffff1673ffffffffffffffffffffffffffffffffffffffff16815260200191505060405180910390f35b3480156101ee57600080fd5b506101f7610a41565b604051808273ffffffffffffffffffffffffffffffffffffffff1673ffffffffffffffffffffffffffffffffffffffff16815260200191505060405180910390f35b34801561024557600080fd5b5061024e610a50565b604051808215151515815260200191505060405180910390f35b34801561027457600080fd5b506102a16004803603602081101561028b57600080fd5b8101908080359060200190929190505050610a7f565b005b3480156102af57600080fd5b506102b8610d69565b604051808273ffffffffffffffffffffffffffffffffffffffff1673ffffffffffffffffffffffffffffffffffffffff16815260200191505060405180910390f35b34801561030657600080fd5b506103496004803603602081101561031d57600080fd5b81019080803573ffffffffffffffffffffffffffffffffffffffff169060200190929190505050610d8f565b604051808273ffffffffffffffffffffffffffffffffffffffff1673ffffffffffffffffffffffffffffffffffffffff16815260200191505060405180910390f35b34801561039757600080fd5b506103c4600480360360208110156103ae57600080fd5b8101908080359060200190929190505050610e14565b005b3480156103d257600080fd5b506103db610fae565b005b3480156103e957600080fd5b506103f2611139565b6040518082815260200191505060405180910390f35b34801561041457600080fd5b5061041d61113f565b604051808215151515815260200191505060405180910390f35b34801561044357600080fd5b5061044c61116e565b6040518082815260200191505060405180910390f35b34801561046e57600080fd5b50610477611178565b6040518080602001828103825283818151815260200191508051906020019060200280838360005b838110156104ba57808201518184015260208101905061049f565b505050509050019250505060405180910390f35b3480156104da57600080fd5b506104e3611206565b604051808273ffffffffffffffffffffffffffffffffffffffff1673ffffffffffffffffffffffffffffffffffffffff16815260200191505060405180910390f35b34801561053157600080fd5b5061053a611230565b6040518082815260200191505060405180910390f35b34801561055c57600080fd5b50610565611236565b6040518082815260200191505060405180910390f35b34801561058757600080fd5b5061059061123c565b6040518082815260200191505060405180910390f35b3480156105b257600080fd5b506105bb611244565b6040518082815260200191505060405180910390f35b3480156105dd57600080fd5b506105e661124a565b6040518082815260200191505060405180910390f35b610604611250565b005b34801561061257600080fd5b5061061b611390565b604051808215151515815260200191505060405180910390f35b34801561064157600080fd5b5061064a6113c0565b6040518082815260200191505060405180910390f35b34801561066c57600080fd5b506106af6004803603602081101561068357600080fd5b81019080803573ffffffffffffffffffffffffffffffffffffffff1690602001909291905050506113cd565b005b3480156106bd57600080fd5b506106ea600480360360208110156106d457600080fd5b81019080803590602001909291905050506115dd565b604051808273ffffffffffffffffffffffffffffffffffffffff1673ffffffffffffffffffffffffffffffffffffffff16815260200191505060405180910390f35b600280600281111561073a57fe5b601160009054906101000a900460ff16600281111561075557fe5b146107ab576040517f08c379a000000000000000000000000000000000000000000000000000000000815260040180806020018281038252602781526020018061215b6027913960400191505060405180910390fd5b60008211610821576040517f08c379a00000000000000000000000000000000000000000000000000000000081526004018080602001828103825260108152602001807f72616e646f6d2d6e6f742d666f756e640000000000000000000000000000000081525060200191505060405180910390fd5b6000600780549050838161083157fe5b06905060004790506007828154811061084657fe5b9060005260206000200160009054906101000a900473ffffffffffffffffffffffffffffffffffffffff1673ffffffffffffffffffffffffffffffffffffffff166108fc829081150290604051600060405180830381858888f193505050501580156108b6573d6000803e3d6000fd5b50600782815481106108c457fe5b9060005260206000200160009054906101000a900473ffffffffffffffffffffffffffffffffffffffff1673ffffffffffffffffffffffffffffffffffffffff167f318c439a1352bef364f5056683fd70dba6a5052051c7d4d4bb8e2690b2422469600f548685856040518085815260200184815260200183815260200182815260200194505050505060405180910390a2600067ffffffffffffffff8111801561096e57600080fd5b5060405190808252806020026020018201604052801561099d5781602001602082028036833780820191505090505b50600790805190602001906109b3929190611fbd565b506001601160006101000a81548160ff021916908360028111156109d357fe5b02179055507fbf67515a38ee520223d32c1266d52101c30d936ed1f3e436c8caeb0a43cb06bf600f546040518082815260200191505060405180910390a150505050565b6000600c60009054906101000a900473ffffffffffffffffffffffffffffffffffffffff16905090565b6000610a4b611619565b905090565b6000806002811115610a5e57fe5b601160009054906101000a900460ff166002811115610a7957fe5b14905090565b6000806002811115610a8d57fe5b601160009054906101000a900460ff166002811115610aa857fe5b14610afe576040517f08c379a000000000000000000000000000000000000000000000000000000000815260040180806020018281038252602781526020018061215b6027913960400191505060405180910390fd5b816005600082815260200190815260200160002060009054906101000a900473ffffffffffffffffffffffffffffffffffffffff1673ffffffffffffffffffffffffffffffffffffffff163373ffffffffffffffffffffffffffffffffffffffff1614610bb6576040517f08c379a00000000000000000000000000000000000000000000000000000000081526004018080602001828103825260288152602001806121826028913960400191505060405180910390fd5b6005600082815260200190815260200160002060006101000a81549073ffffffffffffffffffffffffffffffffffffffff0219169055807f7cc135e0cebb02c3480ae5d74d377283180a2601f8f644edf7987b009316c63a60405160405180910390a26002601160006101000a81548160ff02191690836002811115610c3857fe5b0217905550600960009054906101000a900473ffffffffffffffffffffffffffffffffffffffff1673ffffffffffffffffffffffffffffffffffffffff1663360131896040518163ffffffff1660e01b8152600401602060405180830381600087803b158015610ca757600080fd5b505af1158015610cbb573d6000803e3d6000fd5b505050506040513d6020811015610cd157600080fd5b810190808051906020019092919050505073ffffffffffffffffffffffffffffffffffffffff16633ccca28b600f54600f546040518363ffffffff1660e01b81526004018083815260200182815260200192505050600060405180830381600087803b158015610d4057600080fd5b505af1158015610d54573d6000803e3d6000fd5b505050506001600f5401600f81905550505050565b600960009054906101000a900473ffffffffffffffffffffffffffffffffffffffff1681565b600080600860008473ffffffffffffffffffffffffffffffffffffffff1673ffffffffffffffffffffffffffffffffffffffff16815260200190815260200160002054905060078181548110610de157fe5b9060005260206000200160009054906101000a900473ffffffffffffffffffffffffffffffffffffffff16915050919050565b6001806002811115610e2257fe5b601160009054906101000a900460ff166002811115610e3d57fe5b14610e93576040517f08c379a000000000000000000000000000000000000000000000000000000000815260040180806020018281038252602781526020018061215b6027913960400191505060405180910390fd5b610e9b612047565b610eaf600d5430635508ff9460e01b611643565b9050610efd6040518060400160405280600581526020017f756e74696c000000000000000000000000000000000000000000000000000000815250844201836116749092919063ffffffff16565b610f2c600c60009054906101000a900473ffffffffffffffffffffffffffffffffffffffff1682600b546116a7565b506000601160006101000a81548160ff02191690836002811115610f4c57fe5b02179055503373ffffffffffffffffffffffffffffffffffffffff167f3782a13b1c01b7c9065c8d8d3eec7612ab764556c52731b7d1586917631659c7600f5485604051808381526020018281526020019250505060405180910390a2505050565b610fb661195f565b73ffffffffffffffffffffffffffffffffffffffff16600660009054906101000a900473ffffffffffffffffffffffffffffffffffffffff1673ffffffffffffffffffffffffffffffffffffffff1614611078576040517f08c379a00000000000000000000000000000000000000000000000000000000081526004018080602001828103825260208152602001807f4f776e61626c653a2063616c6c6572206973206e6f7420746865206f776e657281525060200191505060405180910390fd5b600073ffffffffffffffffffffffffffffffffffffffff16600660009054906101000a900473ffffffffffffffffffffffffffffffffffffffff1673ffffffffffffffffffffffffffffffffffffffff167f8be0079c531659141344cd1fd0a4f28419497f9722a3daafe3b4186f6b6457e060405160405180910390a36000600660006101000a81548173ffffffffffffffffffffffffffffffffffffffff021916908373ffffffffffffffffffffffffffffffffffffffff160217905550565b60105481565b600060028081111561114d57fe5b601160009054906101000a900460ff16600281111561116857fe5b14905090565b6000600d54905090565b606060078054806020026020016040519081016040528092919081815260200182805480156111fc57602002820191906000526020600020905b8160009054906101000a900473ffffffffffffffffffffffffffffffffffffffff1673ffffffffffffffffffffffffffffffffffffffff16815260200190600101908083116111b2575b5050505050905090565b6000600660009054906101000a900473ffffffffffffffffffffffffffffffffffffffff16905090565b600a5481565b600b5481565b600047905090565b600e5481565b600f5481565b600080600281111561125e57fe5b601160009054906101000a900460ff16600281111561127957fe5b146112cf576040517f08c379a000000000000000000000000000000000000000000000000000000000815260040180806020018281038252602781526020018061215b6027913960400191505060405180910390fd5b600a5434146112da57fe5b6007339080600181540180825580915050600190039060005260206000200160009091909190916101000a81548173ffffffffffffffffffffffffffffffffffffffff021916908373ffffffffffffffffffffffffffffffffffffffff1602179055503373ffffffffffffffffffffffffffffffffffffffff167f87969bc7faf902221a147b95ceba76e011c5efb0339a0a8ee7a2bb82d9cfbbd6600f546040518082815260200191505060405180910390a250565b60006001600281111561139f57fe5b601160009054906101000a900460ff1660028111156113ba57fe5b14905090565b6000600780549050905090565b6113d561195f565b73ffffffffffffffffffffffffffffffffffffffff16600660009054906101000a900473ffffffffffffffffffffffffffffffffffffffff1673ffffffffffffffffffffffffffffffffffffffff1614611497576040517f08c379a00000000000000000000000000000000000000000000000000000000081526004018080602001828103825260208152602001807f4f776e61626c653a2063616c6c6572206973206e6f7420746865206f776e657281525060200191505060405180910390fd5b600073ffffffffffffffffffffffffffffffffffffffff168173ffffffffffffffffffffffffffffffffffffffff16141561151d576040517f08c379a00000000000000000000000000000000000000000000000000000000081526004018080602001828103825260268152602001806121126026913960400191505060405180910390fd5b8073ffffffffffffffffffffffffffffffffffffffff16600660009054906101000a900473ffffffffffffffffffffffffffffffffffffffff1673ffffffffffffffffffffffffffffffffffffffff167f8be0079c531659141344cd1fd0a4f28419497f9722a3daafe3b4186f6b6457e060405160405180910390a380600660006101000a81548173ffffffffffffffffffffffffffffffffffffffff021916908373ffffffffffffffffffffffffffffffffffffffff16021790555050565b600781815481106115ea57fe5b906000526020600020016000915054906101000a900473ffffffffffffffffffffffffffffffffffffffff1681565b6000600260009054906101000a900473ffffffffffffffffffffffffffffffffffffffff16905090565b61164b612047565b611653612047565b61166a85858584611967909392919063ffffffff16565b9150509392505050565b61168b828460800151611a1790919063ffffffff16565b6116a2818460800151611a3c90919063ffffffff16565b505050565b600030600454604051602001808373ffffffffffffffffffffffffffffffffffffffff1673ffffffffffffffffffffffffffffffffffffffff1660601b815260140182815260200192505050604051602081830303815290604052805190602001209050600454836060018181525050836005600083815260200190815260200160002060006101000a81548173ffffffffffffffffffffffffffffffffffffffff021916908373ffffffffffffffffffffffffffffffffffffffff160217905550807fb5e6e01e79f91267dc17b4e6314d5d4d03593d2ceee0fbb452b750bd70ea5af960405160405180910390a2600260009054906101000a900473ffffffffffffffffffffffffffffffffffffffff1673ffffffffffffffffffffffffffffffffffffffff16634000aea085846117df87611a4c565b6040518463ffffffff1660e01b8152600401808473ffffffffffffffffffffffffffffffffffffffff1673ffffffffffffffffffffffffffffffffffffffff16815260200183815260200180602001828103825283818151815260200191508051906020019080838360005b8381101561186657808201518184015260208101905061184b565b50505050905090810190601f1680156118935780820380516001836020036101000a031916815260200191505b50945050505050602060405180830381600087803b1580156118b457600080fd5b505af11580156118c8573d6000803e3d6000fd5b505050506040513d60208110156118de57600080fd5b8101908080519060200190929190505050611944576040517f08c379a00000000000000000000000000000000000000000000000000000000081526004018080602001828103825260238152602001806121386023913960400191505060405180910390fd5b60016004600082825401925050819055508090509392505050565b600033905090565b61196f612047565b61197f8560800151610100611c18565b508385600001818152505082856020019073ffffffffffffffffffffffffffffffffffffffff16908173ffffffffffffffffffffffffffffffffffffffff16815250508185604001907bffffffffffffffffffffffffffffffffffffffffffffffffffffffff191690817bffffffffffffffffffffffffffffffffffffffffffffffffffffffff191681525050849050949350505050565b611a248260038351611c6c565b611a378183611db190919063ffffffff16565b505050565b611a4882600083611c6c565b5050565b6060634042994660e01b60008084600001518560200151866040015187606001516001896080015160000151604051602401808973ffffffffffffffffffffffffffffffffffffffff1673ffffffffffffffffffffffffffffffffffffffff1681526020018881526020018781526020018673ffffffffffffffffffffffffffffffffffffffff1673ffffffffffffffffffffffffffffffffffffffff168152602001857bffffffffffffffffffffffffffffffffffffffffffffffffffffffff19167bffffffffffffffffffffffffffffffffffffffffffffffffffffffff1916815260200184815260200183815260200180602001828103825283818151815260200191508051906020019080838360005b83811015611b7b578082015181840152602081019050611b60565b50505050905090810190601f168015611ba85780820380516001836020036101000a031916815260200191505b509950505050505050505050604051602081830303815290604052907bffffffffffffffffffffffffffffffffffffffffffffffffffffffff19166020820180517bffffffffffffffffffffffffffffffffffffffffffffffffffffffff83818316178352505050509050919050565b611c206120b4565b600060208381611c2c57fe5b0614611c455760208281611c3c57fe5b06602003820191505b81836020018181525050604051808452600081528281016020016040525082905092915050565b60178111611c9957611c938160058460ff16901b60ff161784611dd390919063ffffffff16565b50611dac565b60ff8111611cdb57611cbe601860058460ff16901b1784611dd390919063ffffffff16565b50611cd581600185611df39092919063ffffffff16565b50611dab565b61ffff8111611d1e57611d01601960058460ff16901b1784611dd390919063ffffffff16565b50611d1881600285611df39092919063ffffffff16565b50611daa565b63ffffffff8111611d6357611d46601a60058460ff16901b1784611dd390919063ffffffff16565b50611d5d81600485611df39092919063ffffffff16565b50611da9565b67ffffffffffffffff8111611da857611d8f601b60058460ff16901b1784611dd390919063ffffffff16565b50611da681600885611df39092919063ffffffff16565b505b5b5b5b5b505050565b611db96120b4565b611dcb83846000015151848551611e15565b905092915050565b611ddb6120b4565b611deb8384600001515184611ece565b905092915050565b611dfb6120b4565b611e0c848560000151518585611f1c565b90509392505050565b611e1d6120b4565b8251821115611e2b57600080fd5b84602001518285011115611e5657611e55856002611e4f8860200151888701611f7d565b02611f99565b5b600080865180518760208301019350808887011115611e755787860182525b60208701925050505b60208410611ea15780518252602082019150602081019050602084039350611e7e565b60006001856020036101000a03905080198251168184511681811785525050879350505050949350505050565b611ed66120b4565b83602001518310611ef357611ef2846002866020015102611f99565b5b8351805160208583010184815381861415611f0f576001820183525b5050508390509392505050565b611f246120b4565b84602001518483011115611f4257611f4185600286850102611f99565b5b60006001836101000a0390508551838682010185831982511617815281518588011115611f6f5784870182525b505085915050949350505050565b600081831115611f8f57829050611f93565b8190505b92915050565b606082600001519050611fac8383611c18565b50611fb78382611db1565b50505050565b828054828255906000526020600020908101928215612036579160200282015b828111156120355782518260006101000a81548173ffffffffffffffffffffffffffffffffffffffff021916908373ffffffffffffffffffffffffffffffffffffffff16021790555091602001919060010190611fdd565b5b50905061204391906120ce565b5090565b6040518060a0016040528060008019168152602001600073ffffffffffffffffffffffffffffffffffffffff16815260200160007bffffffffffffffffffffffffffffffffffffffffffffffffffffffff19168152602001600081526020016120ae6120b4565b81525090565b604051806040016040528060608152602001600081525090565b61210e91905b8082111561210a57600081816101000a81549073ffffffffffffffffffffffffffffffffffffffff0219169055506001016120d4565b5090565b9056fe4f776e61626c653a206e6577206f776e657220697320746865207a65726f2061646472657373756e61626c6520746f207472616e73666572416e6443616c6c20746f206f7261636c6546756e6374696f6e2063616e6e6f742062652063616c6c656420617420746869732074696d652e536f75726365206d75737420626520746865206f7261636c65206f66207468652072657175657374a26469706673582212205785236d03d7caac17cb82c859bbc5f86b6e26378d2794e6eff6631fe5dcf83a64736f6c63430006060033",
  "immutableReferences": {},
  "source": "// SPDX-License-Identifier: MIT\npragma solidity ^0.6.6;\n\nimport \"@chainlink/contracts/src/v0.6/ChainlinkClient.sol\";\nimport \"openzeppelin-solidity/contracts/access/Ownable.sol\";\nimport \"openzeppelin-solidity/contracts/utils/EnumerableSet.sol\";\n\nimport {Governance} from \"./interfaces/Governance.sol\";\nimport {Randomness} from \"./interfaces/Randomness.sol\";\n\n/**\n * @title MyContract is an example contract which requests data from\n * the Chainlink network\n * @dev This contract is designed to work on multiple networks, including\n * local test networks\n */\ncontract LottoBuffalo is ChainlinkClient, Ownable {\n    using EnumerableSet for EnumerableSet.AddressSet;\n\n    struct GameHistory {\n        // Feasible to play more than 4,294,967,295 games?\n        uint32 played;\n    }\n\n    struct Player {\n        uint256 id;\n        GameHistory gameHistory;\n    }\n\n    enum Stages {OPEN, CLOSED, FINISHED}\n\n    address payable[] public players;\n    mapping(address => uint256) playerIdsByAddress;\n\n    Governance public governance;\n    // .01 ETH\n    uint256 public MINIMUM = 1000000000000000;\n    // 0.1 LINK\n    uint256 public ORACLE_PAYMENT = 1000000000000000000;\n    // Alarm stuff\n    address private CHAINLINK_ALARM_ORACLE;\n    bytes32 private CHAINLINK_ALARM_JOB_ID = \"778633ef18884692adc1fe9592107957\";\n    // VRF stuff\n    // bytes32 internal _keyHash;\n    uint256 public RANDOMRESULT;\n\n    /**\n     * The current lottery id.\n     */\n    uint256 public id = 0;\n\n    uint256 public data;\n\n    Stages private stage;\n\n    event Open(uint256 _id, address indexed _from, uint256 _duration);\n    event Close(uint256 _id);\n    event Winner(\n        uint256 _id,\n        uint256 _randomness,\n        uint256 _index,\n        address indexed _from,\n        uint256 _amount\n    );\n    event PlayerJoined(uint256 _id, address indexed _from);\n\n    modifier atStage(Stages _stage) {\n        // string(abi.encodePacked(_.name, \" can only be called at stage: \", _stage, \"\\n Current stage: \", stage))\n        require(stage == _stage, \"Function cannot be called at this time.\");\n        _;\n    }\n\n    /**\n     * @notice Deploy the contract with a specified address for the LINK\n     * and Oracle contract addresses\n     * @dev Sets the storage for the specified addresses\n     * @param _link The address of the LINK token contract\n     */\n    constructor(\n        address _governance,\n        address _link,\n        address _alarmOracle\n    ) public {\n        if (_link == address(0)) {\n            setPublicChainlinkToken();\n        } else {\n            setChainlinkToken(_link);\n        }\n\n        governance = Governance(_governance);\n        id = 1;\n        stage = Stages.CLOSED;\n\n        CHAINLINK_ALARM_ORACLE = _alarmOracle;\n    }\n\n    function join() public payable atStage(Stages.OPEN) {\n        assert(msg.value == MINIMUM);\n        players.push(msg.sender);\n        // TODO: check that player is not already in lottery\n        emit PlayerJoined(id, msg.sender);\n    }\n\n    /**\n     * Opens the lottery allowing players to join.\n     *\n     * Sends a request to the Chainlink alarm oracle that will automatically\n     * close the lottery based off the duration passed.\n     *\n     * @param duration the length in time the lottery will be open.\n     */\n    function open(uint256 duration) public atStage(Stages.CLOSED) {\n        Chainlink.Request memory req = buildChainlinkRequest(\n            CHAINLINK_ALARM_JOB_ID,\n            address(this),\n            this.fulfill.selector\n        );\n\n        req.addUint(\"until\", now + duration);\n        sendChainlinkRequestTo(CHAINLINK_ALARM_ORACLE, req, ORACLE_PAYMENT);\n        stage = Stages.OPEN;\n        emit Open(id, msg.sender, duration);\n    }\n\n    function fulfill(bytes32 requestId)\n        public\n        atStage(Stages.OPEN)\n        recordChainlinkFulfillment(requestId)\n    {\n        // TODO: add a require here so that only the oracle contract can\n        // call the fulfill alarm method\n        stage = Stages.FINISHED;\n        Randomness(governance.randomness()).getLotteryNumber(id, id);\n        id = id + 1;\n    }\n\n    function close(uint256 randomness) external atStage(Stages.FINISHED) {\n        require(randomness > 0, \"random-not-found\");\n\n        uint256 index = randomness % players.length;\n        uint256 amount = address(this).balance;\n        // all units of transfer are in wei\n        players[index].transfer(amount);\n        emit Winner(id, randomness, index, players[index], amount);\n        // reset players\n        // TODO: reset lobbies/groups rather than players\n        players = new address payable[](0);\n        stage = Stages.CLOSED;\n        emit Close(id);\n        // open(5 minutes);\n    }\n\n    /**\n     * @notice Returns the address of the LINK token\n     * @dev This is the public implementation for chainlinkTokenAddress, which is\n     * an internal method of the ChainlinkClient contract\n     */\n    function getChainlinkToken() public view returns (address) {\n        return chainlinkTokenAddress();\n    }\n\n    function getPlayer(address _player) public view returns (address payable) {\n        uint256 _playerId = playerIdsByAddress[_player];\n        return players[_playerId];\n    }\n\n    function getAlarmAddress() public view returns (address) {\n        return CHAINLINK_ALARM_ORACLE;\n    }\n\n    function getAlarmJobId() public view returns (bytes32) {\n        return CHAINLINK_ALARM_JOB_ID;\n    }\n\n    function getPlayers() public view returns (address payable[] memory) {\n        return players;\n    }\n\n    function getPlayerCount() public view returns (uint256) {\n        return players.length;\n    }\n\n    function getLotteryAmount() public view returns (uint256) {\n        return address(this).balance;\n    }\n\n    function isOpen() public view returns (bool) {\n        return stage == Stages.OPEN;\n    }\n\n    function isClosed() public view returns (bool) {\n        return stage == Stages.CLOSED;\n    }\n\n    function isFinished() public view returns (bool) {\n        return stage == Stages.FINISHED;\n    }\n\n    // function getLastResult() public view returns (bool) {\n    //     return RANDOMRESULT;\n    // }\n}\n",
  "sourcePath": "/Users/gmsteuart/Sites/lotto-buffalo/ethereum/contracts/LottoBuffalo.sol",
  "compiler": {
    "name": "solc",
    "version": "0.6.6+commit.6c089d02.Emscripten.clang"
  },
  "schemaVersion": "3.2.3",
  "updatedAt": "2020-08-10T15:51:52.204Z",
  "networkType": "ethereum",
  "devdoc": {
    "details": "This contract is designed to work on multiple networks, including local test networks",
    "methods": {
      "constructor": {
        "details": "Sets the storage for the specified addresses",
        "params": {
          "_link": "The address of the LINK token contract"
        }
      },
      "getChainlinkToken()": {
        "details": "This is the public implementation for chainlinkTokenAddress, which is an internal method of the ChainlinkClient contract"
      },
      "open(uint256)": {
        "params": {
          "duration": "the length in time the lottery will be open."
        }
      },
      "owner()": {
        "details": "Returns the address of the current owner."
      },
      "renounceOwnership()": {
        "details": "Leaves the contract without owner. It will not be possible to call `onlyOwner` functions anymore. Can only be called by the current owner.     * NOTE: Renouncing ownership will leave the contract without an owner, thereby removing any functionality that is only available to the owner."
      },
      "transferOwnership(address)": {
        "details": "Transfers ownership of the contract to a new account (`newOwner`). Can only be called by the current owner."
      }
    },
    "title": "MyContract is an example contract which requests data from the Chainlink network"
  },
  "userdoc": {
    "methods": {
      "constructor": "Deploy the contract with a specified address for the LINK and Oracle contract addresses",
      "getChainlinkToken()": {
        "notice": "Returns the address of the LINK token"
      },
      "open(uint256)": {
        "notice": "Opens the lottery allowing players to join.     * Sends a request to the Chainlink alarm oracle that will automatically close the lottery based off the duration passed."
      }
    }
  }
}