{
  "contractName": "RandomNumberConsumer",
  "abi": [
    {
      "inputs": [
        {
          "internalType": "address",
          "name": "_vrfCoordinator",
          "type": "address"
        },
        {
          "internalType": "address",
          "name": "_link",
          "type": "address"
        },
        {
          "internalType": "address",
          "name": "_governance",
          "type": "address"
        }
      ],
      "stateMutability": "nonpayable",
      "type": "constructor"
    },
    {
      "inputs": [],
      "name": "governance",
      "outputs": [
        {
          "internalType": "contract Governance",
          "name": "",
          "type": "address"
        }
      ],
      "stateMutability": "view",
      "type": "function",
      "constant": true
    },
    {
      "inputs": [
        {
          "internalType": "bytes32",
          "name": "",
          "type": "bytes32"
        }
      ],
      "name": "nonces",
      "outputs": [
        {
          "internalType": "uint256",
          "name": "",
          "type": "uint256"
        }
      ],
      "stateMutability": "view",
      "type": "function",
      "constant": true
    },
    {
      "inputs": [
        {
          "internalType": "uint256",
          "name": "",
          "type": "uint256"
        }
      ],
      "name": "randomResults",
      "outputs": [
        {
          "internalType": "uint256",
          "name": "",
          "type": "uint256"
        }
      ],
      "stateMutability": "view",
      "type": "function",
      "constant": true
    },
    {
      "inputs": [
        {
          "internalType": "bytes32",
          "name": "requestId",
          "type": "bytes32"
        },
        {
          "internalType": "uint256",
          "name": "randomness",
          "type": "uint256"
        }
      ],
      "name": "rawFulfillRandomness",
      "outputs": [],
      "stateMutability": "nonpayable",
      "type": "function"
    },
    {
      "inputs": [
        {
          "internalType": "bytes32",
          "name": "",
          "type": "bytes32"
        }
      ],
      "name": "requestIds",
      "outputs": [
        {
          "internalType": "uint256",
          "name": "",
          "type": "uint256"
        }
      ],
      "stateMutability": "view",
      "type": "function",
      "constant": true
    },
    {
      "inputs": [
        {
          "internalType": "bytes32",
          "name": "_keyHash",
          "type": "bytes32"
        },
        {
          "internalType": "uint256",
          "name": "_fee",
          "type": "uint256"
        },
        {
          "internalType": "uint256",
          "name": "_seed",
          "type": "uint256"
        }
      ],
      "name": "requestRandomness",
      "outputs": [
        {
          "internalType": "bytes32",
          "name": "requestId",
          "type": "bytes32"
        }
      ],
      "stateMutability": "nonpayable",
      "type": "function"
    },
    {
      "inputs": [
        {
          "internalType": "uint256",
          "name": "lotteryId",
          "type": "uint256"
        },
        {
          "internalType": "uint256",
          "name": "seed",
          "type": "uint256"
        }
      ],
      "name": "getLotteryNumber",
      "outputs": [],
      "stateMutability": "nonpayable",
      "type": "function"
    },
    {
      "inputs": [
        {
          "internalType": "uint256",
          "name": "userProvidedSeed",
          "type": "uint256"
        }
      ],
      "name": "getRandomNumber",
      "outputs": [
        {
          "internalType": "bytes32",
          "name": "requestId",
          "type": "bytes32"
        }
      ],
      "stateMutability": "nonpayable",
      "type": "function"
    }
  ],
  "bytecode": "0x608060405234801561001057600080fd5b50604051610e4e380380610e4e8339818101604052606081101561003357600080fd5b81019080805190602001909291908051906020019092919080519060200190929190505050828281600160006101000a81548173ffffffffffffffffffffffffffffffffffffffff021916908373ffffffffffffffffffffffffffffffffffffffff160217905550806000806101000a81548173ffffffffffffffffffffffffffffffffffffffff021916908373ffffffffffffffffffffffffffffffffffffffff16021790555050507f555d3f000257eefb2c93b59b0b6ca2b5fedd06375051d32617731f93cfa806af60001b60048190555067016345785d8a000060058190555080600360006101000a81548173ffffffffffffffffffffffffffffffffffffffff021916908373ffffffffffffffffffffffffffffffffffffffff160217905550505050610ce5806101696000396000f3fe608060405234801561001057600080fd5b50600436106100885760003560e01c806394985ddd1161005b57806394985ddd146101935780639e317f12146101cb578063b37217a41461020d578063dc6cfe101461024f57610088565b8063219be1141461008d5780633ccca28b146100cf5780635aa6e675146101075780638645f7a814610151575b600080fd5b6100b9600480360360208110156100a357600080fd5b81019080803590602001909291905050506102a5565b6040518082815260200191505060405180910390f35b610105600480360360408110156100e557600080fd5b8101908080359060200190929190803590602001909291905050506102bd565b005b61010f6104b5565b604051808273ffffffffffffffffffffffffffffffffffffffff1673ffffffffffffffffffffffffffffffffffffffff16815260200191505060405180910390f35b61017d6004803603602081101561016757600080fd5b81019080803590602001909291905050506104db565b6040518082815260200191505060405180910390f35b6101c9600480360360408110156101a957600080fd5b8101908080359060200190929190803590602001909291905050506104f3565b005b6101f7600480360360208110156101e157600080fd5b81019080803590602001909291905050506105c4565b6040518082815260200191505060405180910390f35b6102396004803603602081101561022357600080fd5b81019080803590602001909291905050506105dc565b6040518082815260200191505060405180910390f35b61028f6004803603606081101561026557600080fd5b81019080803590602001909291908035906020019092919080359060200190929190505050610726565b6040518082815260200191505060405180910390f35b60066020528060005260406000206000915090505481565b6000600660008481526020019081526020016000205414610346576040517f08c379a00000000000000000000000000000000000000000000000000000000081526004018080602001828103825260148152602001807f616c72656164792d666f756e642d72616e646f6d00000000000000000000000081525060200191505060405180910390fd5b3373ffffffffffffffffffffffffffffffffffffffff16600360009054906101000a900473ffffffffffffffffffffffffffffffffffffffff1673ffffffffffffffffffffffffffffffffffffffff1663ba13a5726040518163ffffffff1660e01b8152600401602060405180830381600087803b1580156103c757600080fd5b505af11580156103db573d6000803e3d6000fd5b505050506040513d60208110156103f157600080fd5b810190808051906020019092919050505073ffffffffffffffffffffffffffffffffffffffff161461048b576040517f08c379a00000000000000000000000000000000000000000000000000000000081526004018080602001828103825260138152602001807f6e6f742d6c6f74746572792d616464726573730000000000000000000000000081525060200191505060405180910390fd5b6000610496826105dc565b9050826007600083815260200190815260200160002081905550505050565b600360009054906101000a900473ffffffffffffffffffffffffffffffffffffffff1681565b60076020528060005260406000206000915090505481565b600160009054906101000a900473ffffffffffffffffffffffffffffffffffffffff1673ffffffffffffffffffffffffffffffffffffffff163373ffffffffffffffffffffffffffffffffffffffff16146105b6576040517f08c379a000000000000000000000000000000000000000000000000000000000815260040180806020018281038252601f8152602001807f4f6e6c7920565246436f6f7264696e61746f722063616e2066756c66696c6c0081525060200191505060405180910390fd5b6105c08282610937565b5050565b60026020528060005260406000206000915090505481565b60006005546000809054906101000a900473ffffffffffffffffffffffffffffffffffffffff1673ffffffffffffffffffffffffffffffffffffffff166370a08231306040518263ffffffff1660e01b8152600401808273ffffffffffffffffffffffffffffffffffffffff1673ffffffffffffffffffffffffffffffffffffffff16815260200191505060206040518083038186803b15801561067f57600080fd5b505afa158015610693573d6000803e3d6000fd5b505050506040513d60208110156106a957600080fd5b810190808051906020019092919050505011610710576040517f08c379a000000000000000000000000000000000000000000000000000000000815260040180806020018281038252602b815260200180610c5d602b913960400191505060405180910390fd5b61071f60045460055484610726565b9050919050565b60008060009054906101000a900473ffffffffffffffffffffffffffffffffffffffff1673ffffffffffffffffffffffffffffffffffffffff16634000aea0600160009054906101000a900473ffffffffffffffffffffffffffffffffffffffff1685878660405160200180838152602001828152602001925050506040516020818303038152906040526040518463ffffffff1660e01b8152600401808473ffffffffffffffffffffffffffffffffffffffff1673ffffffffffffffffffffffffffffffffffffffff16815260200183815260200180602001828103825283818151815260200191508051906020019080838360005b8381101561083857808201518184015260208101905061081d565b50505050905090810190601f1680156108655780820380516001836020036101000a031916815260200191505b50945050505050602060405180830381600087803b15801561088657600080fd5b505af115801561089a573d6000803e3d6000fd5b505050506040513d60208110156108b057600080fd5b81019080805190602001909291905050505060006108e3858430600260008a815260200190815260200160002054610b21565b905061090c60016002600088815260200190815260200160002054610b9b90919063ffffffff16565b600260008781526020019081526020016000208190555061092d8582610c23565b9150509392505050565b600160009054906101000a900473ffffffffffffffffffffffffffffffffffffffff1673ffffffffffffffffffffffffffffffffffffffff163373ffffffffffffffffffffffffffffffffffffffff16146109dd576040517f08c379a0000000000000000000000000000000000000000000000000000000008152600401808060200182810382526028815260200180610c886028913960400191505060405180910390fd5b600060076000848152602001908152602001600020549050816006600083815260200190815260200160002081905550600360009054906101000a900473ffffffffffffffffffffffffffffffffffffffff1673ffffffffffffffffffffffffffffffffffffffff1663ba13a5726040518163ffffffff1660e01b8152600401602060405180830381600087803b158015610a7757600080fd5b505af1158015610a8b573d6000803e3d6000fd5b505050506040513d6020811015610aa157600080fd5b810190808051906020019092919050505073ffffffffffffffffffffffffffffffffffffffff16630aebeb4e836040518263ffffffff1660e01b815260040180828152602001915050600060405180830381600087803b158015610b0457600080fd5b505af1158015610b18573d6000803e3d6000fd5b50505050505050565b600084848484604051602001808581526020018481526020018373ffffffffffffffffffffffffffffffffffffffff1673ffffffffffffffffffffffffffffffffffffffff1681526020018281526020019450505050506040516020818303038152906040528051906020012060001c9050949350505050565b600080828401905083811015610c19576040517f08c379a000000000000000000000000000000000000000000000000000000000815260040180806020018281038252601b8152602001807f536166654d6174683a206164646974696f6e206f766572666c6f77000000000081525060200191505060405180910390fd5b8091505092915050565b6000828260405160200180838152602001828152602001925050506040516020818303038152906040528051906020012090509291505056fe4e6f7420656e6f756768204c494e4b202d2066696c6c20636f6e747261637420776974682066617563657446756c66696c6d656e74206f6e6c79207065726d697474656420627920436f6f7264696e61746f72a2646970667358221220c57e82413f7bef7971bbd8b3f17264cf94f687f7ab57d60f64a05b45576c7cc064736f6c63430006060033",
  "immutableReferences": {},
  "source": "// SPDX-License-Identifier: MIT\npragma solidity ^0.6.6;\n\nimport \"@chainlink/contracts/src/v0.6/VRFRequestIDBase.sol\";\nimport \"@chainlink/contracts/src/v0.6/VRFConsumerBase.sol\";\n\nimport {Governance} from \"./interfaces/Governance.sol\";\nimport {Lottery} from \"./interfaces/Lottery.sol\";\n\ncontract RandomNumberConsumer is VRFConsumerBase {\n    Governance public governance;\n\n    bytes32 internal keyHash;\n\n    /**\n     * Fee for requesting a random number from the VRF\n     */\n    uint256 internal fee;\n\n    /**\n     * Mapping of lottery id => randomn result number\n     */\n    mapping(uint256 => uint256) public randomResults;\n\n    /**\n     * Mapping of requestId to lotteryId\n     */\n    mapping(bytes32 => uint256) public requestIds;\n\n    /**\n     * Constructor inherits VRFConsumerBase\n     *\n     * Network: Ropsten\n     * Chainlink VRF Coordinator addresses:\n     *      Local:      0x88Fd2bAd06285b90341458731dEc2c180cd2e892\n     *      Ropsten:    0xf720CF1B963e0e7bE9F58fd471EFa67e7bF00cfb\n     * LINK token addresses:\n     *      Local:      0xF4d0e956464396cEBC998F60C0AB8720161fa4c2\n     *      Ropsten:    0x20fE562d797A42Dcb3399062AE9546cd06f63280\n     * Key Hash:\n     *      Local:      0x555d3f000257eefb2c93b59b0b6ca2b5fedd06375051d32617731f93cfa806af\n     *      Ropsten:    0xced103054e349b8dfb51352f0f8fa9b5d20dde3d06f9f43cb2b85bc64b238205\n     */\n    constructor(\n        address _vrfCoordinator,\n        address _link,\n        address _governance\n    ) public VRFConsumerBase(_vrfCoordinator, _link) {\n        keyHash = 0x555d3f000257eefb2c93b59b0b6ca2b5fedd06375051d32617731f93cfa806af;\n        fee = 0.1 * 10**18; // 0.1 LINK\n        governance = Governance(_governance);\n    }\n\n    function getLotteryNumber(uint256 lotteryId, uint256 seed) external {\n        require(randomResults[lotteryId] == 0, \"already-found-random\");\n        require(governance.lottery() == msg.sender, \"not-lottery-address\");\n\n        bytes32 _requestId = getRandomNumber(seed);\n        requestIds[_requestId] = lotteryId;\n    }\n\n    /**\n     * Requests randomness from a user-provided seed\n     */\n    function getRandomNumber(uint256 userProvidedSeed)\n        public\n        returns (bytes32 requestId)\n    {\n        require(\n            LINK.balanceOf(address(this)) > fee,\n            \"Not enough LINK - fill contract with faucet\"\n        );\n        return requestRandomness(keyHash, fee, userProvidedSeed);\n    }\n\n    /**\n     * Callback function used by VRF Coordinator\n     */\n    function fulfillRandomness(bytes32 requestId, uint256 randomness)\n        internal\n        override\n    {\n        require(\n            msg.sender == vrfCoordinator,\n            \"Fulfilment only permitted by Coordinator\"\n        );\n        uint256 lotteryId = requestIds[requestId];\n        randomResults[lotteryId] = randomness;\n        Lottery(governance.lottery()).close(randomness);\n    }\n}\n",
  "sourcePath": "/Users/gmsteuart/Sites/lotto-buffalo/ethereum/contracts/RandomNumberConsumer.sol",
  "compiler": {
    "name": "solc",
    "version": "0.6.6+commit.6c089d02.Emscripten.clang"
  },
  "schemaVersion": "3.2.3",
  "updatedAt": "2020-08-09T21:55:03.537Z",
  "networkType": "ethereum",
  "devdoc": {
    "methods": {
      "requestRandomness(bytes32,uint256,uint256)": {
        "details": "The source of the seed data must be something which the oraclecannot anticipate. See \"SECURITY CONSIDERATIONS\" above.The fulfillRandomness method receives the output, once it's providedby the Oracle, and verified by the vrfCoordinator.The _keyHash must already be registered with the VRFCoordinator, andthe _fee must exceed the fee specified during registration of the_keyHash.The returned requestId can be used to distinguish responses to *concurrent requests. It is passed as the first argument tofulfillRandomness.",
        "params": {
          "_fee": "The amount of LINK to send with the request",
          "_keyHash": "ID of public key against which randomness is generated",
          "_seed": "Random seed from which output randomness is determined"
        },
        "returns": {
          "requestId": "which will be returned with the response to this request"
        }
      }
    }
  },
  "userdoc": {
    "methods": {
      "constructor": "Constructor inherits VRFConsumerBase     * Network: Ropsten Chainlink VRF Coordinator addresses:     Local:      0x88Fd2bAd06285b90341458731dEc2c180cd2e892     Ropsten:    0xf720CF1B963e0e7bE9F58fd471EFa67e7bF00cfb LINK token addresses:     Local:      0xF4d0e956464396cEBC998F60C0AB8720161fa4c2     Ropsten:    0x20fE562d797A42Dcb3399062AE9546cd06f63280 Key Hash:     Local:      0x555d3f000257eefb2c93b59b0b6ca2b5fedd06375051d32617731f93cfa806af     Ropsten:    0xced103054e349b8dfb51352f0f8fa9b5d20dde3d06f9f43cb2b85bc64b238205",
      "getRandomNumber(uint256)": {
        "notice": "Requests randomness from a user-provided seed"
      },
      "requestRandomness(bytes32,uint256,uint256)": {
        "notice": "requestRandomness initiates a request for VRF output given _seed"
      }
    }
  }
}