{
  "contractName": "Lottery",
  "abi": [
    {
      "inputs": [],
      "stateMutability": "nonpayable",
      "type": "constructor"
    },
    {
      "anonymous": false,
      "inputs": [
        {
          "indexed": true,
          "internalType": "bytes32",
          "name": "id",
          "type": "bytes32"
        }
      ],
      "name": "ChainlinkCancelled",
      "type": "event"
    },
    {
      "anonymous": false,
      "inputs": [
        {
          "indexed": true,
          "internalType": "bytes32",
          "name": "id",
          "type": "bytes32"
        }
      ],
      "name": "ChainlinkFulfilled",
      "type": "event"
    },
    {
      "anonymous": false,
      "inputs": [
        {
          "indexed": true,
          "internalType": "bytes32",
          "name": "id",
          "type": "bytes32"
        }
      ],
      "name": "ChainlinkRequested",
      "type": "event"
    },
    {
      "inputs": [],
      "name": "MINIMUM",
      "outputs": [
        {
          "internalType": "uint256",
          "name": "",
          "type": "uint256"
        }
      ],
      "stateMutability": "view",
      "type": "function",
      "constant": true
    },
    {
      "inputs": [],
      "name": "OPEN",
      "outputs": [
        {
          "internalType": "bool",
          "name": "",
          "type": "bool"
        }
      ],
      "stateMutability": "view",
      "type": "function",
      "constant": true
    },
    {
      "inputs": [],
      "name": "ORACLE_PAYMENT",
      "outputs": [
        {
          "internalType": "uint256",
          "name": "",
          "type": "uint256"
        }
      ],
      "stateMutability": "view",
      "type": "function",
      "constant": true
    },
    {
      "inputs": [],
      "name": "RANDOMRESULT",
      "outputs": [
        {
          "internalType": "uint256",
          "name": "",
          "type": "uint256"
        }
      ],
      "stateMutability": "view",
      "type": "function",
      "constant": true
    },
    {
      "inputs": [],
      "name": "governanceContract",
      "outputs": [
        {
          "internalType": "contract GovernanceInterface",
          "name": "",
          "type": "address"
        }
      ],
      "stateMutability": "view",
      "type": "function",
      "constant": true
    },
    {
      "inputs": [
        {
          "internalType": "uint256",
          "name": "",
          "type": "uint256"
        }
      ],
      "name": "players",
      "outputs": [
        {
          "internalType": "address payable",
          "name": "",
          "type": "address"
        }
      ],
      "stateMutability": "view",
      "type": "function",
      "constant": true
    },
    {
      "inputs": [],
      "name": "enter",
      "outputs": [],
      "stateMutability": "payable",
      "type": "function",
      "payable": true
    },
    {
      "inputs": [],
      "name": "start_new_lottery",
      "outputs": [],
      "stateMutability": "nonpayable",
      "type": "function"
    },
    {
      "inputs": [
        {
          "internalType": "bytes32",
          "name": "_requestId",
          "type": "bytes32"
        }
      ],
      "name": "fulfill",
      "outputs": [],
      "stateMutability": "nonpayable",
      "type": "function"
    },
    {
      "inputs": [],
      "name": "get_players",
      "outputs": [
        {
          "internalType": "address payable[]",
          "name": "",
          "type": "address[]"
        }
      ],
      "stateMutability": "view",
      "type": "function",
      "constant": true
    }
  ],
  "bytecode": "0x60806040526001600455600060075566038d7ea4c68000600a5567016345785d8a0000600b5573c99b3d447826532722e41bc36e644ba3479e4365600c60006101000a81548173ffffffffffffffffffffffffffffffffffffffff021916908373ffffffffffffffffffffffffffffffffffffffff160217905550604051806060016040528060228152602001620016e360229139600d9080519060200190620000ab929190620000e3565b50348015620000b957600080fd5b5060016007819055506000600960006101000a81548160ff02191690831515021790555062000192565b828054600181600116156101000203166002900490600052602060002090601f016020900481019282601f106200012657805160ff191683800117855562000157565b8280016001018555821562000157579182015b828111156200015657825182559160200191906001019062000139565b5b5090506200016691906200016a565b5090565b6200018f91905b808211156200018b57600081600090555060010162000171565b5090565b90565b61154180620001a26000396000f3fe6080604052600436106100915760003560e01c8063b172b22211610059578063b172b22214610169578063d1b9c430146101c0578063e7e4552c146101ef578063e97dcb621461025b578063f71d96cb1461026557610091565b8063475f3de1146100965780635508ff94146100ad5780639c484b5c146100e8578063a1fd4b3414610113578063aeca21401461013e575b600080fd5b3480156100a257600080fd5b506100ab6102e0565b005b3480156100b957600080fd5b506100e6600480360360208110156100d057600080fd5b810190808035906020019092919050505061043a565b005b3480156100f457600080fd5b506100fd610588565b6040518082815260200191505060405180910390f35b34801561011f57600080fd5b5061012861058e565b6040518082815260200191505060405180910390f35b34801561014a57600080fd5b50610153610594565b6040518082815260200191505060405180910390f35b34801561017557600080fd5b5061017e61059a565b604051808273ffffffffffffffffffffffffffffffffffffffff1673ffffffffffffffffffffffffffffffffffffffff16815260200191505060405180910390f35b3480156101cc57600080fd5b506101d56105c0565b604051808215151515815260200191505060405180910390f35b3480156101fb57600080fd5b506102046105d3565b6040518080602001828103825283818151815260200191508051906020019060200280838360005b8381101561024757808201518184015260208101905061022c565b505050509050019250505060405180910390f35b610263610661565b005b34801561027157600080fd5b5061029e6004803603602081101561028857600080fd5b81019080803590602001909291905050506106ee565b604051808273ffffffffffffffffffffffffffffffffffffffff1673ffffffffffffffffffffffffffffffffffffffff16815260200191505060405180910390f35b6102e861136c565b61039c61038e600d8054600181600116156101000203166002900480601f0160208091040260200160405190810160405280929190818152602001828054600181600116156101000203166002900480156103845780601f1061035957610100808354040283529160200191610384565b820191906000526020600020905b81548152906001019060200180831161036757829003601f168201915b505050505061072a565b30635508ff9460e01b610755565b90506103ec6040518060400160405280600581526020017f756e74696c00000000000000000000000000000000000000000000000000000081525061012c4201836107869092919063ffffffff16565b61041b600c60009054906101000a900473ffffffffffffffffffffffffffffffffffffffff1682600b546107b9565b506001600960006101000a81548160ff02191690831515021790555050565b806005600082815260200190815260200160002060009054906101000a900473ffffffffffffffffffffffffffffffffffffffff1673ffffffffffffffffffffffffffffffffffffffff163373ffffffffffffffffffffffffffffffffffffffff16146104f2576040517f08c379a00000000000000000000000000000000000000000000000000000000081526004018080602001828103825260288152602001806114e46028913960400191505060405180910390fd5b6005600082815260200190815260200160002060006101000a81549073ffffffffffffffffffffffffffffffffffffffff0219169055807f7cc135e0cebb02c3480ae5d74d377283180a2601f8f644edf7987b009316c63a60405160405180910390a26000600960006101000a81548160ff021916908315150217905550600160075401600781905550610584610a71565b5050565b600a5481565b600b5481565b600e5481565b600660009054906101000a900473ffffffffffffffffffffffffffffffffffffffff1681565b600960009054906101000a900460ff1681565b6060600880548060200260200160405190810160405280929190818152602001828054801561065757602002820191906000526020600020905b8160009054906101000a900473ffffffffffffffffffffffffffffffffffffffff1673ffffffffffffffffffffffffffffffffffffffff168152602001906001019080831161060d575b5050505050905090565b600a54341461066c57fe5b60011515600960009054906101000a900460ff1615151461068957fe5b6008339080600181540180825580915050600190039060005260206000200160009091909190916101000a81548173ffffffffffffffffffffffffffffffffffffffff021916908373ffffffffffffffffffffffffffffffffffffffff160217905550565b600881815481106106fb57fe5b906000526020600020016000915054906101000a900473ffffffffffffffffffffffffffffffffffffffff1681565b60006060829050600081511415610747576000801b915050610750565b60208301519150505b919050565b61075d61136c565b61076561136c565b61077c85858584610d16909392919063ffffffff16565b9150509392505050565b61079d828460800151610dc690919063ffffffff16565b6107b4818460800151610deb90919063ffffffff16565b505050565b600030600454604051602001808373ffffffffffffffffffffffffffffffffffffffff1673ffffffffffffffffffffffffffffffffffffffff1660601b815260140182815260200192505050604051602081830303815290604052805190602001209050600454836060018181525050836005600083815260200190815260200160002060006101000a81548173ffffffffffffffffffffffffffffffffffffffff021916908373ffffffffffffffffffffffffffffffffffffffff160217905550807fb5e6e01e79f91267dc17b4e6314d5d4d03593d2ceee0fbb452b750bd70ea5af960405160405180910390a2600260009054906101000a900473ffffffffffffffffffffffffffffffffffffffff1673ffffffffffffffffffffffffffffffffffffffff16634000aea085846108f187610dfb565b6040518463ffffffff1660e01b8152600401808473ffffffffffffffffffffffffffffffffffffffff1673ffffffffffffffffffffffffffffffffffffffff16815260200183815260200180602001828103825283818151815260200191508051906020019080838360005b8381101561097857808201518184015260208101905061095d565b50505050905090810190601f1680156109a55780820380516001836020036101000a031916815260200191505b50945050505050602060405180830381600087803b1580156109c657600080fd5b505af11580156109da573d6000803e3d6000fd5b505050506040513d60208110156109f057600080fd5b8101908080519060200190929190505050610a56576040517f08c379a00000000000000000000000000000000000000000000000000000000081526004018080602001828103825260238152602001806114c16023913960400191505060405180910390fd5b60016004600082825401925050819055508090509392505050565b6000600660009054906101000a900473ffffffffffffffffffffffffffffffffffffffff1673ffffffffffffffffffffffffffffffffffffffff1663360131896040518163ffffffff1660e01b815260040160206040518083038186803b158015610adb57600080fd5b505afa158015610aef573d6000803e3d6000fd5b505050506040513d6020811015610b0557600080fd5b810190808051906020019092919050505073ffffffffffffffffffffffffffffffffffffffff1663f970dd026007546040518263ffffffff1660e01b81526004018082815260200191505060206040518083038186803b158015610b6857600080fd5b505afa158015610b7c573d6000803e3d6000fd5b505050506040513d6020811015610b9257600080fd5b8101908080519060200190929190505050905060006008805490508281610bb557fe5b06905060008211610c2e576040517f08c379a00000000000000000000000000000000000000000000000000000000081526004018080602001828103825260108152602001807f72616e646f6d2d6e6f742d666f756e640000000000000000000000000000000081525060200191505060405180910390fd5b60088181548110610c3b57fe5b9060005260206000200160009054906101000a900473ffffffffffffffffffffffffffffffffffffffff1673ffffffffffffffffffffffffffffffffffffffff166108fc479081150290604051600060405180830381858888f19350505050158015610cab573d6000803e3d6000fd5b50600067ffffffffffffffff81118015610cc457600080fd5b50604051908082528060200260200182016040528015610cf35781602001602082028036833780820191505090505b5060089080519060200190610d099291906113d9565b50610d126102e0565b5050565b610d1e61136c565b610d2e8560800151610100610fc7565b508385600001818152505082856020019073ffffffffffffffffffffffffffffffffffffffff16908173ffffffffffffffffffffffffffffffffffffffff16815250508185604001907bffffffffffffffffffffffffffffffffffffffffffffffffffffffff191690817bffffffffffffffffffffffffffffffffffffffffffffffffffffffff191681525050849050949350505050565b610dd3826003835161101b565b610de6818361116090919063ffffffff16565b505050565b610df78260008361101b565b5050565b6060634042994660e01b60008084600001518560200151866040015187606001516001896080015160000151604051602401808973ffffffffffffffffffffffffffffffffffffffff1673ffffffffffffffffffffffffffffffffffffffff1681526020018881526020018781526020018673ffffffffffffffffffffffffffffffffffffffff1673ffffffffffffffffffffffffffffffffffffffff168152602001857bffffffffffffffffffffffffffffffffffffffffffffffffffffffff19167bffffffffffffffffffffffffffffffffffffffffffffffffffffffff1916815260200184815260200183815260200180602001828103825283818151815260200191508051906020019080838360005b83811015610f2a578082015181840152602081019050610f0f565b50505050905090810190601f168015610f575780820380516001836020036101000a031916815260200191505b509950505050505050505050604051602081830303815290604052907bffffffffffffffffffffffffffffffffffffffffffffffffffffffff19166020820180517bffffffffffffffffffffffffffffffffffffffffffffffffffffffff83818316178352505050509050919050565b610fcf611463565b600060208381610fdb57fe5b0614610ff45760208281610feb57fe5b06602003820191505b81836020018181525050604051808452600081528281016020016040525082905092915050565b60178111611048576110428160058460ff16901b60ff16178461118290919063ffffffff16565b5061115b565b60ff811161108a5761106d601860058460ff16901b178461118290919063ffffffff16565b50611084816001856111a29092919063ffffffff16565b5061115a565b61ffff81116110cd576110b0601960058460ff16901b178461118290919063ffffffff16565b506110c7816002856111a29092919063ffffffff16565b50611159565b63ffffffff8111611112576110f5601a60058460ff16901b178461118290919063ffffffff16565b5061110c816004856111a29092919063ffffffff16565b50611158565b67ffffffffffffffff81116111575761113e601b60058460ff16901b178461118290919063ffffffff16565b50611155816008856111a29092919063ffffffff16565b505b5b5b5b5b505050565b611168611463565b61117a838460000151518485516111c4565b905092915050565b61118a611463565b61119a838460000151518461127d565b905092915050565b6111aa611463565b6111bb8485600001515185856112cb565b90509392505050565b6111cc611463565b82518211156111da57600080fd5b84602001518285011115611205576112048560026111fe886020015188870161132c565b02611348565b5b6000808651805187602083010193508088870111156112245787860182525b60208701925050505b60208410611250578051825260208201915060208101905060208403935061122d565b60006001856020036101000a03905080198251168184511681811785525050879350505050949350505050565b611285611463565b836020015183106112a2576112a1846002866020015102611348565b5b83518051602085830101848153818614156112be576001820183525b5050508390509392505050565b6112d3611463565b846020015184830111156112f1576112f085600286850102611348565b5b60006001836101000a039050855183868201018583198251161781528151858801111561131e5784870182525b505085915050949350505050565b60008183111561133e57829050611342565b8190505b92915050565b60608260000151905061135b8383610fc7565b506113668382611160565b50505050565b6040518060a0016040528060008019168152602001600073ffffffffffffffffffffffffffffffffffffffff16815260200160007bffffffffffffffffffffffffffffffffffffffffffffffffffffffff19168152602001600081526020016113d3611463565b81525090565b828054828255906000526020600020908101928215611452579160200282015b828111156114515782518260006101000a81548173ffffffffffffffffffffffffffffffffffffffff021916908373ffffffffffffffffffffffffffffffffffffffff160217905550916020019190600101906113f9565b5b50905061145f919061147d565b5090565b604051806040016040528060608152602001600081525090565b6114bd91905b808211156114b957600081816101000a81549073ffffffffffffffffffffffffffffffffffffffff021916905550600101611483565b5090565b9056fe756e61626c6520746f207472616e73666572416e6443616c6c20746f206f7261636c65536f75726365206d75737420626520746865206f7261636c65206f66207468652072657175657374a264697066735822122065e445ab92f5ee047add6d853dffad7f672527e94a252387500a8776b94d2ffe64736f6c6343000606003330783265626231633161346231653432323961646163323465653062356637383466",
  "immutableReferences": {},
  "source": "pragma solidity ^0.6.6;\nimport \"@chainlink/contracts/src/v0.6/ChainlinkClient.sol\";\nimport \"@openzeppelin/contracts/access/Ownable.sol\";\nimport {GovernanceInterface} from \"./interfaces/governance.sol\";\nimport {RandomnessInterface} from \"./interfaces/randomness.sol\";\n\ncontract Lottery is ChainlinkClient {\n    GovernanceInterface public governanceContract;\n    uint256 lotteryId = 0;\n    address payable[] public players;\n    bool public OPEN;\n    // .01 ETH\n    uint256 public MINIMUM = 1000000000000000;\n    // 0.1 LINK\n    uint256 public ORACLE_PAYMENT = 100000000000000000;\n    // Alarm stuff\n    address CHAINLINK_ALARM_ORACLE = 0xc99B3D447826532722E41bc36e644ba3479E4365;\n    string CHAINLINK_ALARM_JOB_ID = \"0x2ebb1c1a4b1e4229adac24ee0b5f784f\";\n    //VRF stuff\n    // bytes32 internal _keyHash;\n    uint256 public RANDOMRESULT;\n\n    // address public VRFAddress = 0x6ABd8BB710f383E1446882710DE4C2C2b9dbF449;\n    // RandomNumberGenerator rng;\n\n    constructor() public // VRFConsumerBase(\n    //     0xf720CF1B963e0e7bE9F58fd471EFa67e7bF00cfb, // VRF Coordinator\n    //     0x20fE562d797A42Dcb3399062AE9546cd06f63280 // LINK Token\n    // )\n    {\n        // RandomNumberGenerator rng = RandomNumberGenerator(VRFAddress);\n        lotteryId = 1;\n        OPEN = false;\n        // manager = msg.sender;\n        //_keyHash = 0xced103054e349b8dfb51352f0f8fa9b5d20dde3d06f9f43cb2b85bc64b238205;\n        // _fee = 0.1 * 10**18; // 0.1 LINK\n        // this is always availible\n    }\n\n    function enter() public payable {\n        //require(msg.value > MINIMUM);\n        assert(msg.value == MINIMUM);\n        assert(OPEN == true);\n        // could also write:\n        // .01 ether\n        players.push(msg.sender);\n    }\n\n    // function getRandomNumber() private returns (bytes32 requestId) {\n    //     uint256 userProvidedSeed = 3453234;\n    //     require(\n    //         LINK.balanceOf(address(this)) > fee,\n    //         \"Not enough LINK - fill contract with faucet\"\n    //     );\n    //     return requestRandomness(keyHash, ORACLE_PAYMENT, userProvidedSeed);\n    // }\n\n    // /**\n    //  * Callback function used by VRF Coordinator\n    //  */\n    // function fulfillRandomness(bytes32 requestId, uint256 randomness)\n    //     external\n    //     override\n    // {\n    //     require(\n    //         msg.sender == vrfCoordinator,\n    //         \"Fulillment only permitted by Coordinator\"\n    //     );\n    //     RANDOMRESULT = randomness;\n    //     pickWinner();\n    // }\n\n    function start_new_lottery() public {\n        Chainlink.Request memory req = buildChainlinkRequest(\n            stringToBytes32(CHAINLINK_ALARM_JOB_ID),\n            address(this),\n            this.fulfill.selector\n        );\n        req.addUint(\"until\", now + 5 minutes);\n        sendChainlinkRequestTo(CHAINLINK_ALARM_ORACLE, req, ORACLE_PAYMENT);\n        OPEN = true;\n    }\n\n    function fulfill(bytes32 _requestId)\n        public\n        recordChainlinkFulfillment(_requestId)\n    {\n        OPEN = false;\n        lotteryId = lotteryId + 1;\n        pickWinner();\n        //start_next_lottery();\n        //OPEN = true;\n    }\n\n    function pickWinner() private {\n        // assert(msg.sender == manager);\n        uint256 randomNum = RandomnessInterface(governanceContract.randomness())\n            .randomNumber(lotteryId);\n        uint256 index = randomNum % players.length;\n        require(randomNum > 0, \"random-not-found\");\n        players[index].transfer(address(this).balance);\n        // returns an adress object\n        // all units of transfer are in wei\n        players = new address payable[](0);\n        // this empties the dynamic array\n        start_new_lottery();\n    }\n\n    function get_players() public view returns (address payable[] memory) {\n        return players;\n    }\n\n    function stringToBytes32(string memory source)\n        private\n        pure\n        returns (bytes32 result)\n    {\n        bytes memory tempEmptyStringTest = bytes(source);\n        if (tempEmptyStringTest.length == 0) {\n            return 0x0;\n        }\n        assembly {\n            // solhint-disable-line no-inline-assembly\n            result := mload(add(source, 32))\n        }\n    }\n}\n",
  "sourcePath": "/Users/patrick/code/chainlink-lottery/ethereum/contracts/Lottery.sol",
  "compiler": {
    "name": "solc",
    "version": "0.6.6+commit.6c089d02.Emscripten.clang"
  },
  "schemaVersion": "3.2.3",
  "updatedAt": "2020-08-02T10:36:49.312Z",
  "networkType": "ethereum",
  "devdoc": {
    "methods": {}
  },
  "userdoc": {
    "methods": {}
  }
}