{
  "contractName": "RandomNumberConsumer",
  "abi": [
    {
      "inputs": [],
      "stateMutability": "nonpayable",
      "type": "constructor"
    },
    {
      "inputs": [
        {
          "internalType": "bytes32",
          "name": "",
          "type": "bytes32"
        }
      ],
      "name": "nonces",
      "outputs": [
        {
          "internalType": "uint256",
          "name": "",
          "type": "uint256"
        }
      ],
      "stateMutability": "view",
      "type": "function"
    },
    {
      "inputs": [],
      "name": "randomResult",
      "outputs": [
        {
          "internalType": "uint256",
          "name": "",
          "type": "uint256"
        }
      ],
      "stateMutability": "view",
      "type": "function"
    },
    {
      "inputs": [
        {
          "internalType": "bytes32",
          "name": "requestId",
          "type": "bytes32"
        },
        {
          "internalType": "uint256",
          "name": "randomness",
          "type": "uint256"
        }
      ],
      "name": "rawFulfillRandomness",
      "outputs": [],
      "stateMutability": "nonpayable",
      "type": "function"
    },
    {
      "inputs": [
        {
          "internalType": "bytes32",
          "name": "_keyHash",
          "type": "bytes32"
        },
        {
          "internalType": "uint256",
          "name": "_fee",
          "type": "uint256"
        },
        {
          "internalType": "uint256",
          "name": "_seed",
          "type": "uint256"
        }
      ],
      "name": "requestRandomness",
      "outputs": [
        {
          "internalType": "bytes32",
          "name": "requestId",
          "type": "bytes32"
        }
      ],
      "stateMutability": "nonpayable",
      "type": "function"
    },
    {
      "inputs": [
        {
          "internalType": "uint256",
          "name": "userProvidedSeed",
          "type": "uint256"
        }
      ],
      "name": "getRandomNumber",
      "outputs": [
        {
          "internalType": "bytes32",
          "name": "requestId",
          "type": "bytes32"
        }
      ],
      "stateMutability": "nonpayable",
      "type": "function"
    }
  ],
  "bytecode": "0x608060405234801561001057600080fd5b5073f720cf1b963e0e7be9f58fd471efa67e7bf00cfb7320fe562d797a42dcb3399062ae9546cd06f6328081600160006101000a81548173ffffffffffffffffffffffffffffffffffffffff021916908373ffffffffffffffffffffffffffffffffffffffff160217905550806000806101000a81548173ffffffffffffffffffffffffffffffffffffffff021916908373ffffffffffffffffffffffffffffffffffffffff16021790555050507fced103054e349b8dfb51352f0f8fa9b5d20dde3d06f9f43cb2b85bc64b23820560001b60038190555067016345785d8a000060048190555061084b806101066000396000f3fe608060405234801561001057600080fd5b50600436106100575760003560e01c806342619f661461005c57806394985ddd1461007a5780639e317f12146100b2578063b37217a4146100f4578063dc6cfe1014610136575b600080fd5b61006461018c565b6040518082815260200191505060405180910390f35b6100b06004803603604081101561009057600080fd5b810190808035906020019092919080359060200190929190505050610192565b005b6100de600480360360208110156100c857600080fd5b8101908080359060200190929190505050610263565b6040518082815260200191505060405180910390f35b6101206004803603602081101561010a57600080fd5b810190808035906020019092919050505061027b565b6040518082815260200191505060405180910390f35b6101766004803603606081101561014c57600080fd5b810190808035906020019092919080359060200190929190803590602001909291905050506103c5565b6040518082815260200191505060405180910390f35b60055481565b600160009054906101000a900473ffffffffffffffffffffffffffffffffffffffff1673ffffffffffffffffffffffffffffffffffffffff163373ffffffffffffffffffffffffffffffffffffffff1614610255576040517f08c379a000000000000000000000000000000000000000000000000000000000815260040180806020018281038252601f8152602001807f4f6e6c7920565246436f6f7264696e61746f722063616e2066756c66696c6c0081525060200191505060405180910390fd5b61025f82826105d6565b5050565b60026020528060005260406000206000915090505481565b60006004546000809054906101000a900473ffffffffffffffffffffffffffffffffffffffff1673ffffffffffffffffffffffffffffffffffffffff166370a08231306040518263ffffffff1660e01b8152600401808273ffffffffffffffffffffffffffffffffffffffff1673ffffffffffffffffffffffffffffffffffffffff16815260200191505060206040518083038186803b15801561031e57600080fd5b505afa158015610332573d6000803e3d6000fd5b505050506040513d602081101561034857600080fd5b8101908080519060200190929190505050116103af576040517f08c379a000000000000000000000000000000000000000000000000000000000815260040180806020018281038252602b8152602001806107c3602b913960400191505060405180910390fd5b6103be600354600454846103c5565b9050919050565b60008060009054906101000a900473ffffffffffffffffffffffffffffffffffffffff1673ffffffffffffffffffffffffffffffffffffffff16634000aea0600160009054906101000a900473ffffffffffffffffffffffffffffffffffffffff1685878660405160200180838152602001828152602001925050506040516020818303038152906040526040518463ffffffff1660e01b8152600401808473ffffffffffffffffffffffffffffffffffffffff1673ffffffffffffffffffffffffffffffffffffffff16815260200183815260200180602001828103825283818151815260200191508051906020019080838360005b838110156104d75780820151818401526020810190506104bc565b50505050905090810190601f1680156105045780820380516001836020036101000a031916815260200191505b50945050505050602060405180830381600087803b15801561052557600080fd5b505af1158015610539573d6000803e3d6000fd5b505050506040513d602081101561054f57600080fd5b8101908080519060200190929190505050506000610582858430600260008a815260200190815260200160002054610687565b90506105ab6001600260008881526020019081526020016000205461070190919063ffffffff16565b60026000878152602001908152602001600020819055506105cc8582610789565b9150509392505050565b600160009054906101000a900473ffffffffffffffffffffffffffffffffffffffff1673ffffffffffffffffffffffffffffffffffffffff163373ffffffffffffffffffffffffffffffffffffffff161461067c576040517f08c379a00000000000000000000000000000000000000000000000000000000081526004018080602001828103825260288152602001806107ee6028913960400191505060405180910390fd5b806005819055505050565b600084848484604051602001808581526020018481526020018373ffffffffffffffffffffffffffffffffffffffff1673ffffffffffffffffffffffffffffffffffffffff1681526020018281526020019450505050506040516020818303038152906040528051906020012060001c9050949350505050565b60008082840190508381101561077f576040517f08c379a000000000000000000000000000000000000000000000000000000000815260040180806020018281038252601b8152602001807f536166654d6174683a206164646974696f6e206f766572666c6f77000000000081525060200191505060405180910390fd5b8091505092915050565b6000828260405160200180838152602001828152602001925050506040516020818303038152906040528051906020012090509291505056fe4e6f7420656e6f756768204c494e4b202d2066696c6c20636f6e747261637420776974682066617563657446756c66696c6d656e74206f6e6c79207065726d697474656420627920436f6f7264696e61746f72a26469706673582212203fbec23fb4f4464c1c792bc139a3ed42f64ae67ef8016930454ff7b8f5639a5a64736f6c63430006060033",
  "immutableReferences": {},
  "source": "pragma solidity 0.6.6;\n\nimport \"@chainlink/contracts/src/v0.6/VRFRequestIDBase.sol\";\nimport \"@chainlink/contracts/src/v0.6/VRFConsumerBase.sol\";\n\ncontract RandomNumberConsumer is VRFConsumerBase {\n    bytes32 internal keyHash;\n    uint256 internal fee;\n\n    uint256 public randomResult;\n\n    /**\n     * Constructor inherits VRFConsumerBase\n     *\n     * Network: Ropsten\n     * Chainlink VRF Coordinator address: 0xf720CF1B963e0e7bE9F58fd471EFa67e7bF00cfb\n     * LINK token address:                0x20fE562d797A42Dcb3399062AE9546cd06f63280\n     * Key Hash: 0xced103054e349b8dfb51352f0f8fa9b5d20dde3d06f9f43cb2b85bc64b238205\n     */\n    constructor()\n        public\n        VRFConsumerBase(\n            0xf720CF1B963e0e7bE9F58fd471EFa67e7bF00cfb, // VRF Coordinator\n            0x20fE562d797A42Dcb3399062AE9546cd06f63280 // LINK Token\n        )\n    {\n        keyHash = 0xced103054e349b8dfb51352f0f8fa9b5d20dde3d06f9f43cb2b85bc64b238205;\n        fee = 0.1 * 10**18; // 0.1 LINK\n    }\n\n    /**\n     * Requests randomness from a user-provided seed\n     */\n    function getRandomNumber(uint256 userProvidedSeed)\n        public\n        returns (bytes32 requestId)\n    {\n        require(\n            LINK.balanceOf(address(this)) > fee,\n            \"Not enough LINK - fill contract with faucet\"\n        );\n        return requestRandomness(keyHash, fee, userProvidedSeed);\n    }\n\n    /**\n     * Callback function used by VRF Coordinator\n     */\n    function fulfillRandomness(bytes32 requestId, uint256 randomness)\n        internal\n        override\n    {\n        require(\n            msg.sender == vrfCoordinator,\n            \"Fulfilment only permitted by Coordinator\"\n        );\n        randomResult = randomness;\n    }\n}\n",
  "sourcePath": "/Users/gmsteuart/Sites/lotto-buffalo/contracts/RandomNumberConsumer.sol",
  "compiler": {
    "name": "solc",
    "version": "0.6.6+commit.6c089d02.Emscripten.clang"
  },
  "schemaVersion": "3.2.3",
  "updatedAt": "2020-08-01T18:58:18.507Z",
  "devdoc": {
    "methods": {
      "requestRandomness(bytes32,uint256,uint256)": {
        "details": "The source of the seed data must be something which the oraclecannot anticipate. See \"SECURITY CONSIDERATIONS\" above.The fulfillRandomness method receives the output, once it's providedby the Oracle, and verified by the vrfCoordinator.The _keyHash must already be registered with the VRFCoordinator, andthe _fee must exceed the fee specified during registration of the_keyHash.The returned requestId can be used to distinguish responses to *concurrent requests. It is passed as the first argument tofulfillRandomness.",
        "params": {
          "_fee": "The amount of LINK to send with the request",
          "_keyHash": "ID of public key against which randomness is generated",
          "_seed": "Random seed from which output randomness is determined"
        },
        "returns": {
          "requestId": "which will be returned with the response to this request"
        }
      }
    }
  },
  "userdoc": {
    "methods": {
      "constructor": "Constructor inherits VRFConsumerBase     * Network: Ropsten Chainlink VRF Coordinator address: 0xf720CF1B963e0e7bE9F58fd471EFa67e7bF00cfb LINK token address:                0x20fE562d797A42Dcb3399062AE9546cd06f63280 Key Hash: 0xced103054e349b8dfb51352f0f8fa9b5d20dde3d06f9f43cb2b85bc64b238205",
      "getRandomNumber(uint256)": {
        "notice": "Requests randomness from a user-provided seed"
      },
      "requestRandomness(bytes32,uint256,uint256)": {
        "notice": "requestRandomness initiates a request for VRF output given _seed"
      }
    }
  }
}